:100000000C9435000C9400000C9400000C9400003B
:100010000C9400000C9400000C9400000C94000060
:100020000C9400000C9400000C9400000C94000050
:100030000C9400000C9400000C9400000C94000040
:100040000C9400000C9400000C9400000C94000030
:100050000C940000C0F9A4B0999282F880900A0A2A
:100060000003040004005E000000F894EE27ECBBDF
:10007000F1E0FBBFEBBFE5BF8DE0A2E0BB27ED9356
:100080008A95E9F780E098E0A0E6ED930197E9F71B
:10009000E2E6F0E085919591009761F0A591B59128
:1000A00005901590BF01F00105900D920197E1F7C1
:1000B000FB01F0CFEFE5EDBFE8E0EEBFC0E6D2E038
:1000C0000C94B300AA93A881A13039F4E981F0E03F
:1000D000EC5AFF4F049005BA09C0A881A23031F450
:1000E000E981F0E0EC5AFF4F049002BA10C0BA93D5
:1000F000AA93A881B981AC91A33628F4A881B981CB
:10010000EC91EF5F03C0A881B981E1E0EC93229606
:100110000895D898D998DA98B49B24C0A52D51D0C9
:10012000A52D57D0B09B05C0A5E0B0E05AD0B0993E
:10013000FECFA42D46D0A42D4CD0B19B05C0A4E089
:10014000B0E04FD0B199FECFA72D3BD0A72D41D025
:10015000B29B05C0A7E0B0E044D0B299FECFB399FE
:1001600001C0DACF0895EFEFEABBE4BBE1BBE0E00A
:10017000E7BBB39B22C0D89AD998DA98152D1130D5
:1001800028F0B49903C032D01150F9CFD898D9983B
:10019000DA9A142D113028F0B49903C027D01150E9
:1001A000F9CFD898D99ADA98172D113028F0B49948
:1001B00003C01CD01150F9CF02C0B499AADFD9CF27
:1001C000FFCFBB27EAE0F0E00E943401EA93A1E010
:1001D00079CFB0E0EAE0F0E00E942F01EA93A2E0DC
:1001E00071CF85DFACE2B1E00C940E01A12FB0E03D
:1001F000EAE0F0E00E942F010E2FA12FBB27EAE0DA
:10020000F0E00E9434013E2F3A93A1E05BDF0A93B5
:10021000A2E058DFA8EEB3E00C940E01109639F07E
:1002200080ED97E00197F1F7A8951197C9F7089528
:10023000F195E195F04008950024112490E1AA0F72
:10024000BB1F001C111C0E1A1F0A18F40E0E1F1ED5
:1002500001C0A1609A9599F7FD01D001089512D0CF
:10026000EBDF0EF4E5DF0895E894B7FF04C0A09536
:10027000B09511966894F7FDDBDFDEDFFD010EF42B
:10028000D7DF0895E894F7FF02C0D2DF6894B7FF84
:1002900006C0A095B095119600F8039400FA089551
:00000001FF
