:060000000C942F000C948B
:1000060000000C9400000C9400000C9400000C946A
:1000160000000C9400000C9400000C9400000C945A
:1000260000000C9400000C9400000C9400000C944A
:1000360000000C9400000C9400000C9400000C943A
:1000460000000C9400000C9400000C940000C0F911
:10005600A4B0999282F88090F894EE27ECBBF1E078
:10006600FBBFEBBFE5BF8DE0A2E0BB27ED938A9512
:10007600E9F780E098E0A0E6ED930197E9F7EFE570
:10008600EDBFE8E0EEBFC0E6D2E00C946000AA93B4
:10009600A881A13039F4E981F0E0EC5AFF4F0490D1
:1000A60005BA09C0A881A23031F4E981F0E0EC5A22
:1000B600FF4F049002BA22960895EFEFEABBE4BB25
:1000C600E1BBD89AD998DA981AE0113018F016D010
:1000D6001150FBCFD898D998DA9A1AE0113018F057
:1000E6000DD01150FBCFD898D99ADA9813E0113079
:1000F60018F004D01150FBCFE4CFFFCFA12FB0E012
:10010600EAE0F0E00E94BA000E2FA12FBB27EAE03A
:10011600F0E00E94BF003E2F3A93A1E0B8DF0A93B9
:10012600A2E0B5DFA8EEB3E00C949900109639F082
:1001360080ED97E00197F1F7A8951197C9F7089513
:10014600F195E195F04008950024112490E1AA0F5D
:10015600BB1F001C111C0E1A1F0A18F40E0E1F1EC0
:1001660001C0A1609A9599F7FD01D001089512D0BA
:10017600EBDF0EF4E5DF0895E894B7FF04C0A09521
:10018600B09511966894F7FDDBDFDEDFFD010EF416
:10019600D7DF0895E894F7FF02C0D2DF6894B7FF6F
:1001A60006C0A095B095119600F8039400FA08953C
:00000001FF
